:100000000C9462000C948A000C948A000C948A0070
:100010000C948A000C948A000C948A000C948A0038
:100020000C948A000C948A000C948A000C948A0028
:100030000C948A000C948A000C948A000C948A0018
:100040000C947E020C948A000C948A000C948A0012
:100050000C948A000C948A000C948A000C948A00F8
:100060000C948A000C948A00000000080002010031
:100070000003040700000000000000000000000072
:1000800023002600290000000000250028002B0086
:1000900000000000240027002A00040404040404D3
:1000A0000404020202020202030303030303010227
:1000B00004081020408001020408102001020408F6
:1000C0001020820511241FBECFEFD8E0DEBFCDBFC8
:1000D00021E0A6E1B1E001C01D92A033B207E1F733
:1000E00011E0A0E0B1E0E6E7F2E102C005900D9278
:1000F000A631B107D9F710E0C2E6D0E004C02197DD
:10010000FE010E944107C136D107C9F70E940D03C5
:100110000C9439090C94000090E0FC01E255FF4F6B
:10012000249186569F4FFC018491882399F090E09A
:10013000880F991FFC01E057FF4FA591B491FC0176
:10014000EA57FF4F859194918FB7F894EC91E22B89
:10015000EC938FBF08953FB7F89480911B01909165
:100160001C01A0911D01B0911E0126B5A89B05C0E0
:100170002F3F19F00196A11DB11D3FBFBA2FA92F26
:10018000982F8827BC01CD01620F711D811D911D23
:1001900042E0660F771F881F991F4A95D1F708958F
:1001A00090E0FC01E859FF4F2491FC01E255FF4F1C
:1001B0003491FC01E656FF4FE491EE23C9F022236F
:1001C00039F0233001F1A8F4213019F1223029F15E
:1001D000F0E0EE0FFF1FEA57FF4FA591B4918FB7E4
:1001E000F894EC91611126C030953E233C938FBF6B
:1001F00008952730A9F02830C9F0243049F78091BC
:1002000080008F7D03C0809180008F778093800075
:10021000DFCF84B58F7784BDDBCF84B58F7DFBCFF7
:100220008091B0008F778093B000D2CF8091B000E2
:100230008F7DF9CF3E2BDACF0F931F93CF93DF93B0
:10024000062F682F809123010E94D0008091240105
:100250008F3F19F060E00E94D0008091220110E0F1
:10026000D0E0C0E0882309F458C0CE010496B8015C
:1002700002C0759567958A95E2F76170E091260155
:10028000F0912701EC0FFD1F80810E94D000219684
:10029000C430D10551F760E0809125010E94D00063
:1002A00061E0809125010E94D00060E080912501ED
:1002B0000E94D0008BE891E00197F1F7D0E0C0E018
:1002C000B8010C2E02C0759567950A94E2F761702B
:1002D000E0912601F0912701EC0FFD1F80810E9423
:1002E000D0002196C430D10559F760E080912501F6
:1002F0000E94D00061E0809125010E94D00060E062
:10030000809125010E94D0008BE891E00197F1F7E0
:10031000DF91CF911F910F910895B8010C2E02C06B
:10032000759567950A94E2F76170E0912601F09166
:100330002701EC0FFD1F80810E94D0002196C8305C
:10034000D10559F7D2CF0F931F93CF93DF938C0131
:10035000D0E0C0E0F80184819581C817D90770F416
:100360008081918160E0009721F08C0F9D1FFC013E
:10037000608181E00E941C012196ECCFDF91CF913A
:100380001F910F910895FC0180819181009711F0D8
:100390000C94E30708950F931F93CF93DF93EC0121
:1003A00088819981009759F02A813B812617370768
:1003B00030F081E0DF91CF911F910F9108958B0173
:1003C0006F5F7F4F0E946C08009759F09983888374
:1003D0001B830A832C813D81232B59F7FC0110825A
:1003E000E8CF80E0E7CFCF92DF92EF92FF920F93BA
:1003F0001F93CF93DF93CDB7DEB761970FB6F89415
:10040000DEBF0FBECDBF8C01CB01F801118210827F
:1004100013821282158214824AE09E012F5F3F4FA1
:100420006901B9010E94B605F60101900020E9F7C3
:1004300031977F01EC18FD08B701C8010E94CB017C
:10044000F8012081318181111CC02115310519F07D
:10045000C9010E94E307F8011182108215821482FB
:100460001382128261960FB6F894DEBF0FBECDBF25
:10047000DF91CF911F910F91FF90EF90DF90CF9080
:100480000895F582E482B601C9010E943209EACFDB
:10049000EF92FF920F931F93CF93DF93EC017B01B9
:1004A000FB0101900020E9F731978F01061B170B24
:1004B000B8010E94CB0128813981811113C0211517
:1004C000310519F0C9010E94E307198218821D82C3
:1004D0001C821B821A82DF91CF911F910F91FF9096
:1004E000EF9008951D830C83B701C901DF91CF916F
:1004F0001F910F91FF90EF900C9432091F920F9271
:100500000FB60F9211242F933F938F939F93AF9326
:10051000BF938091170190911801A0911901B0919A
:100520001A013091160123E0230F2D3758F501965B
:10053000A11DB11D209316018093170190931801FE
:10054000A0931901B0931A0180911B0190911C0195
:10055000A0911D01B0911E010196A11DB11D8093B6
:100560001B0190931C01A0931D01B0931E01BF912C
:10057000AF919F918F913F912F910F900FBE0F9050
:100580001F90189526E8230F0296A11DB11DD2CF0A
:10059000CF92DF92EF92FF920F931F93E82FF92FE4
:1005A00005C0015011092109310961F1908196239B
:1005B0009417B9F305C0015011092109310911F14E
:1005C000908196239413F7CFC12CD12CE12CF12CE0
:1005D0000AC08FEFC81AD80AE80AF80A0C151D05D8
:1005E0002E053F0579F080818623841791F36C2DC9
:1005F0007D2D8E2D9F2D1F910F91FF90EF90DF90FD
:10060000CF90089560E070E080E090E01F910F913E
:10061000FF90EF90DF90CF900895CF93DF9300D0BD
:1006200000D000D0CDB7DEB7789484B5826084BDA9
:1006300084B5816084BD85B5826085BD85B58160E6
:1006400085BD80916E00816080936E001092810064
:10065000809181008260809381008091810081601F
:1006600080938100809180008160809380008091E0
:10067000B10084608093B1008091B000816080936C
:10068000B00080917A00846080937A0080917A0033
:10069000826080937A0080917A00816080937A00F2
:1006A00080917A00806880937A001092C100E09176
:1006B0002801F091290180E18083E0912801F091E7
:1006C000290182E08183809123010E948C00809126
:1006D00024018F3F11F00E948C00809125010E941F
:1006E0008C0010E0812F90E020912201211110C098
:1006F00028E030E08217930774F4E0912601F0912E
:100700002701E80FF91F80810E948C001F5FEACF4C
:1007100024E030E0EFCF8BE39DE00197F1F760E05C
:10072000809123010E94D00060E0809125010E9409
:10073000D000809124018F3F19F060E00E94D0002A
:1007400080912201882309F457C1E0912601F0919C
:10075000270161E080810E94D000E0912601F091A4
:10076000270161E081810E94D000E0912601F09193
:10077000270160E082810E94D000E0912601F09183
:10078000270160E083810E94D00060E08091250114
:100790000E94D00061E0809125010E94D00060E0BD
:1007A000809125010E94D0000FED17E4C801019748
:1007B000F1F761E0809125010E94D00060E0809116
:1007C00025010E94D000C8010197F1F761E08091F6
:1007D00025010E94D00060E0809125010E94D00098
:1007E00083EE93E00197F1F7E0912601F091270164
:1007F00060E080810E94D00061E0809125010E942C
:10080000D00060E0809125010E94D0008BE891E04B
:100810000197F1F7E0912801F0912901818160E2CF
:10082000823008F068E280912201811123C180E1C9
:10083000682B80E00E941C0184E080932A016CE018
:1008400080E00E941C0161E080E00E941C018BE3BB
:100850009FE10197F1F782E080932B0166E080E051
:100860000E941C011A8219821C821B821E821D8218
:1008700066E071E0CE0101960E944802CE01019629
:100880000E94A301CE0101960E94C30123E0422EE3
:10089000512C33E2632E712C40E0242E40E0342EA4
:1008A00060E0809120010E94D000C2010197F1F721
:1008B00061E0809120010E94D000C3010197F1F70F
:1008C00060E0809120010E94D0008091210190E0A1
:1008D000FC01E255FF4F6491FC01E656FF4FE491A5
:1008E000F0E0EE0FFF1FE458FF4F8591949100E474
:1008F00012E42FE030E0462F0E94C8026115710516
:100900008105910529F06F5F7F4F8F4F9F4F9F703B
:100910000E94E00526E933E44BE85CE30E941D06F3
:100920000E9412076B01E0912801F0912901818159
:1009300060E4823028F460E0813011F06081605C16
:10094000606880E00E941C01B601CE0101960E9401
:10095000F301CE0101960E94A301CE0101960E94EF
:10096000C3011A8219821C821B821E821D8260E1D1
:1009700071E0CE0101960E944802CE0101960E94CC
:10098000A301CE0101960E94C301B601CE010196DA
:100990000E94F301AD80BE8000911F0110E0CE01E6
:1009A00001960E94C301B601CE010196A016B106C0
:1009B00008F062C00E94F3011D81CE0101960E94E1
:1009C000C30180911F01181708F070C01A821982A4
:1009D0001C821B821E821D8264E171E0CE010196A1
:1009E0000E944802CE0101960E94A301CE01019609
:1009F0000E94C3011F5FE5CFE0912801F09129011A
:100A0000818160E2823008F068E2606180E00E94EB
:100A10001C018BE496E40197F1F7E0912801F09135
:100A20002901818160E2823008F068E28091220130
:100A300081111CC080E1682B80E00E941C0183E5CD
:100A400092E00197F1F7E0912801F091290181816D
:100A500060E2823008F068E280912201811108C0D2
:100A600080E1682B80E00E941C01D4CE80E0E3CFBF
:100A700080E0F7CF80E0DCCE0E94F301AD80BE8045
:100A800000911F0110E0CE0101960E94C3010A15DA
:100A90001B0560F4B601CE0101960E94F3018D8121
:100AA00080931F01CE0101960E94C3010E94AB00FA
:100AB0004B015C0184EFC82EDD24D394E12CF12C92
:100AC0000E94AB00681979098A099B09683E734046
:100AD00081059105A8F321E0C21AD108E108F108C7
:100AE00088EE880E83E0981EA11CB11CC114D104AD
:100AF000E104F10429F72114310409F4D1CE0E9454
:100B00000000CECE1F93CF93DF93C2E2D1E011E07D
:100B100018838CE089838FEF8A838BE08B8388E056
:100B200090E00E944707FC0185E0808384E0818398
:100B300083E0828382E08383148215821682178287
:100B4000FD83EC8382E090E00E94470720E1FC01F6
:100B5000208311839F838E83E0E2F1E08AE080832B
:100B600089E08183DF91CF911F910895BB27FB011D
:100B70005527AA27880F991FAA1FA41710F0A41B96
:100B800083955051B9F7A05DAA3308F0A95DA193F0
:100B9000009779F7B111B1931192CB010C94D00564
:100BA000DC01FC01672F71917723E1F7329704C0D4
:100BB0007C916D9370836291AE17BF07C8F308955F
:100BC000E89409C097FB3EF49095809570956195E7
:100BD0007F4F8F4F9F4F9923A9F0F92F96E9BB279D
:100BE0009395F695879577956795B795F111F8CF19
:100BF000FAF4BB0F11F460FF1BC06F5F7F4F8F4F84
:100C00009F4F16C0882311F096E911C0772321F079
:100C10009EE8872F762F05C0662371F096E8862F11
:100C200070E060E02AF09A95660F771F881FDAF768
:100C3000880F9695879597F908950E9430060C9431
:100C4000A1060E94930638F00E949A0620F0952390
:100C500011F00C948A060C94900611240C94D5067D
:100C60000E94B20670F3959FC1F3950F50E0551F97
:100C7000629FF001729FBB27F00DB11D639FAA27F1
:100C8000F00DB11DAA1F649F6627B00DA11D661F40
:100C9000829F2227B00DA11D621F739FB00DA11D61
:100CA000621F839FA00D611D221F749F3327A00D1B
:100CB000611D231F849F600D211D822F762F6A2FB7
:100CC00011249F5750409AF0F1F088234AF0EE0F1C
:100CD000FF1FBB1F661F771F881F91505040A9F749
:100CE0009E3F510580F00C948A060C94D5065F3F18
:100CF000E4F3983ED4F3869577956795B795F79585
:100D0000E7959F5FC1F7FE2B880F911D96958795FC
:100D100097F9089597F99F6780E870E060E008957B
:100D20009FEF80EC089500240A9416161706180603
:100D30000906089500240A941216130614060506DF
:100D40000895092E0394000C11F4882352F0BB0F70
:100D500040F4BF2B11F460FF04C06F5F7F4F8F4FD3
:100D60009F4F089557FD9058440F551F59F05F3F0E
:100D700071F04795880F97FB991F61F09F3F79F0BD
:100D800087950895121613061406551FF2CF46953F
:100D9000F1DF08C0161617061806991FF1CF8695C1
:100DA0007105610508940895E894BB2766277727A5
:100DB000CB0197F908952F923F924F925F926F92D5
:100DC0007F928F929F92AF92BF92CF92DF92EF92DB
:100DD000FF920F931F93CF93DF93CDB7DEB7CA1B5C
:100DE000DB0B0FB6F894DEBF0FBECDBF09942A8887
:100DF000398848885F846E847D848C849B84AA842F
:100E0000B984C884DF80EE80FD800C811B81AA81BB
:100E1000B981CE0FD11D0FB6F894DEBF0FBECDBF86
:100E2000ED0108950E94BA0688F09F5798F0B92FF7
:100E30009927B751B0F0E1F0660F771F881F991F0F
:100E40001AF0BA95C9F714C0B13091F00E94D406D7
:100E5000B1E008950C94D406672F782F8827B85FE7
:100E600039F0B93FCCF3869577956795B395D9F767
:100E70003EF490958095709561957F4F8F4F9F4F71
:100E80000895EE0FFF1F0590F491E02D09940F9344
:100E90001F93CF93DF938230910510F482E090E0AE
:100EA000E0912E01F0912F0130E020E0B0E0A0E0D1
:100EB000309799F42115310509F44AC0281B390BE4
:100EC00024303105D8F58A819B816115710589F13E
:100ED000FB0193838283FE0111C040815181028115
:100EE000138148175907E0F04817590799F41097EC
:100EF00061F012960C93129713961C933296CF01C1
:100F0000DF91CF911F910F91089500932E011093BF
:100F10002F01F4CF2115310551F04217530738F056
:100F2000A901DB019A01BD01DF01F801C1CFEF0189
:100F3000F9CF90932F0180932E01CDCFFE01E20FC8
:100F4000F31F819391932250310939832883D7CF9E
:100F500020912C0130912D01232B41F4209102018D
:100F60003091030130932D0120932C012091000139
:100F7000309101012115310541F42DB73EB7409163
:100F8000040150910501241B350BE0912C01F091D7
:100F90002D01E217F307A0F42E1B3F0B281739078A
:100FA00078F0AC014E5F5F4F2417350748F04E0FC5
:100FB0005F1F50932D0140932C01819391939FCFFC
:100FC000F0E0E0E09CCFCF93DF930097E9F0FC01E5
:100FD000329713821282A0912E01B0912F01ED0160
:100FE00030E020E01097A1F420813181820F931F1F
:100FF00020912C0130912D012817390709F061C08B
:10100000F0932D01E0932C01DF91CF910895EA0137
:10101000CE17DF07E8F54A815B819E014115510536
:10102000B1F7E901FB83EA8349915991C40FD51FB8
:10103000EC17FD0761F4808191810296840F951F62
:10104000E90199838883828193819B838A83F0E07D
:10105000E0E012968D919C9113970097B9F52D9130
:101060003C911197CD010296820F931F20912C0184
:1010700030912D012817390739F6309751F5109224
:101080002F0110922E01B0932D01A0932C01BCCF03
:10109000D383C28340815181840F951FC817D9071C
:1010A00061F44E5F5F4F88819981480F591F5183CA
:1010B00040838A819B81938382832115310509F0C6
:1010C000B0CFF0932F01E0932E019ECFFD01DC0104
:1010D000C0CF13821282D7CFB0E0A0E0E2E7F8E001
:1010E0000C94DD068C01009751F4CB010E94470758
:1010F0008C01C801CDB7DEB7E0E10C94F906FC0124
:10110000E60FF71F9C0122503109E217F30708F49C
:101110009DC0D901CD91DC911197C617D70798F0E2
:10112000C530D10530F3CE0104978617970708F331
:10113000C61BD70B2297C193D1936D937C93CF019C
:101140000E94E307D6CF5B01AC1ABD0A4C018C0E9E
:101150009D1EA0912E01B0912F01512C412CF12CFC
:10116000E12C109731F580912C0190912D0188157B
:10117000990509F05CC04616570608F058C08091E2
:10118000000190910101009741F48DB79EB7409105
:10119000040150910501841B950BE817F90708F02D
:1011A00055C0F0932D01E0932C01F9017183608308
:1011B000A0CF8D919C91119712966C9012971396D7
:1011C0007C901397A815B90559F56C0142E0C40E3F
:1011D000D11CCA14DB0420F1AC014A195B09DA0105
:1011E0001296159780F06282738251834083D901F1
:1011F0006D937C93E114F10471F0D7011396FC9385
:10120000EE93129776CF22968C0F9D1FF901918352
:101210008083F301EFCFF0932F01E0932E0169CF8C
:101220004816590608F42C017D01D3019ACFCB0151
:101230000E9447077C01009749F0AE01B8010E9467
:101240002909C8010E94E307870153CF10E000E09D
:1012500050CFFB01DC0102C001900D924150504083
:10126000D8F70895FB01DC0101900D920020E1F711
:061270000895F894FFCF81
:1012760000003001800044697374616E63653A0052
:0612860020636D00200052
:00000001FF
